{
  "transactions": [
    {
      "hash": null,
      "transactionType": "CALL",
      "contractName": null,
      "contractAddress": "0x38d036aa36244ecb834aa10da95de81ea56b4b4e",
      "function": "changeOwner(address)",
      "arguments": [
        "0x1804c8AB1F12E6bbf3894d4083f33e07309d1f38"
      ],
      "transaction": {
        "from": "0xb0a864757abdad574c39261dc6bf7e4576a20f2f",
        "to": "0x38d036aa36244ecb834aa10da95de81ea56b4b4e",
        "gas": "0x7521",
        "value": "0x0",
        "input": "0xa6f9dae10000000000000000000000001804c8ab1f12e6bbf3894d4083f33e07309d1f38",
        "nonce": "0x29",
        "chainId": "0xaa36a7"
      },
      "additionalContracts": [],
      "isFixedGasLimit": false
    }
  ],
  "receipts": [],
  "libraries": [],
  "pending": [],
  "returns": {},
  "timestamp": 1744998649,
  "chain": 11155111,
  "commit": "d083688"
}