{
  "transactions": [
    {
      "hash": null,
      "transactionType": "CALL",
      "contractName": null,
      "contractAddress": "0x38d036aa36244ecb834aa10da95de81ea56b4b4e",
      "function": "changeOwner(address)",
      "arguments": [
        "0xB0A864757ABDad574c39261Dc6Bf7E4576a20F2F"
      ],
      "transaction": {
        "from": "0x9d9a1c7646e081472ac61f6b7799df110cbc5627",
        "to": "0x38d036aa36244ecb834aa10da95de81ea56b4b4e",
        "gas": "0x7521",
        "value": "0x0",
        "input": "0xa6f9dae1000000000000000000000000b0a864757abdad574c39261dc6bf7e4576a20f2f",
        "nonce": "0x0",
        "chainId": "0xaa36a7"
      },
      "additionalContracts": [],
      "isFixedGasLimit": false
    }
  ],
  "receipts": [],
  "libraries": [],
  "pending": [],
  "returns": {},
  "timestamp": 1745316472,
  "chain": 11155111,
  "commit": "d083688"
}