{
  "transactions": [
    {
      "hash": "0x8e8c5efa5fdbd7f099a3a39ac3a503c70fb35bbb1f169c855e2dfb868f391acf",
      "transactionType": "CALL",
      "contractName": null,
      "contractAddress": "0x38d036aa36244ecb834aa10da95de81ea56b4b4e",
      "function": "changeOwner(address)",
      "arguments": [
        "0xB0A864757ABDad574c39261Dc6Bf7E4576a20F2F"
      ],
      "transaction": {
        "from": "0xb0a864757abdad574c39261dc6bf7e4576a20f2f",
        "to": "0x38d036aa36244ecb834aa10da95de81ea56b4b4e",
        "gas": "0x7521",
        "value": "0x0",
        "input": "0xa6f9dae1000000000000000000000000b0a864757abdad574c39261dc6bf7e4576a20f2f",
        "nonce": "0x2f",
        "chainId": "0xaa36a7"
      },
      "additionalContracts": [],
      "isFixedGasLimit": false
    }
  ],
  "receipts": [
    {
      "status": "0x1",
      "cumulativeGasUsed": "0xa4e55d",
      "logs": [],
      "logsBloom": "0x00000000000000000000000000000000000000000000000000000000000000000000000000000000000000000000000000000000000000000000000000000000000000000000000000000000000000000000000000000000000000000000000000000000000000000000000000000000000000000000000000000000000000000000000000000000000000000000000000000000000000000000000000000000000000000000000000000000000000000000000000000000000000000000000000000000000000000000000000000000000000000000000000000000000000000000000000000000000000000000000000000000000000000000000000000000",
      "type": "0x2",
      "transactionHash": "0x8e8c5efa5fdbd7f099a3a39ac3a503c70fb35bbb1f169c855e2dfb868f391acf",
      "transactionIndex": "0x5b",
      "blockHash": "0xfbc2e150c806da4fb35385f72a61844c99285b75d22b0181b8db97c3103e9cbb",
      "blockNumber": "0x7c4af6",
      "gasUsed": "0x5640",
      "effectiveGasPrice": "0x1d6f379",
      "from": "0xb0a864757abdad574c39261dc6bf7e4576a20f2f",
      "to": "0x38d036aa36244ecb834aa10da95de81ea56b4b4e",
      "contractAddress": null
    }
  ],
  "libraries": [],
  "pending": [],
  "returns": {},
  "timestamp": 1744999766,
  "chain": 11155111,
  "commit": "d083688"
}