{
  "transactions": [
    {
      "hash": "0x6ae351fdc61673df7ae2446627477525b78e69e693dcf51da45ae6eed11162be",
      "transactionType": "CALL",
      "contractName": null,
      "contractAddress": "0x38d036aa36244ecb834aa10da95de81ea56b4b4e",
      "function": "changeOwner(address)",
      "arguments": [
        "0xB0A864757ABDad574c39261Dc6Bf7E4576a20F2F"
      ],
      "transaction": {
        "from": "0xb0a864757abdad574c39261dc6bf7e4576a20f2f",
        "to": "0x38d036aa36244ecb834aa10da95de81ea56b4b4e",
        "gas": "0x7521",
        "value": "0x0",
        "input": "0xa6f9dae1000000000000000000000000b0a864757abdad574c39261dc6bf7e4576a20f2f",
        "nonce": "0x33",
        "chainId": "0xaa36a7"
      },
      "additionalContracts": [],
      "isFixedGasLimit": false
    }
  ],
  "receipts": [
    {
      "status": "0x1",
      "cumulativeGasUsed": "0xef1204",
      "logs": [],
      "logsBloom": "0x00000000000000000000000000000000000000000000000000000000000000000000000000000000000000000000000000000000000000000000000000000000000000000000000000000000000000000000000000000000000000000000000000000000000000000000000000000000000000000000000000000000000000000000000000000000000000000000000000000000000000000000000000000000000000000000000000000000000000000000000000000000000000000000000000000000000000000000000000000000000000000000000000000000000000000000000000000000000000000000000000000000000000000000000000000000",
      "type": "0x2",
      "transactionHash": "0x6ae351fdc61673df7ae2446627477525b78e69e693dcf51da45ae6eed11162be",
      "transactionIndex": "0x6a",
      "blockHash": "0x8e47ef6719653a0260bb5624524f81dc27ce87b2de3c0ad9c7e48b505346f502",
      "blockNumber": "0x7cb07d",
      "gasUsed": "0x5640",
      "effectiveGasPrice": "0x982be42ab",
      "from": "0xb0a864757abdad574c39261dc6bf7e4576a20f2f",
      "to": "0x38d036aa36244ecb834aa10da95de81ea56b4b4e",
      "contractAddress": null
    }
  ],
  "libraries": [],
  "pending": [],
  "returns": {},
  "timestamp": 1745315892,
  "chain": 11155111,
  "commit": "d083688"
}