{
  "transactions": [
    {
      "hash": "0xccf7d986499e9248413988bdca4e60b17fce93eaacf64d50a4d740045b68c482",
      "transactionType": "CALL",
      "contractName": null,
      "contractAddress": "0x38d036aa36244ecb834aa10da95de81ea56b4b4e",
      "function": "changeOwner(address)",
      "arguments": [
        "0x1804c8AB1F12E6bbf3894d4083f33e07309d1f38"
      ],
      "transaction": {
        "from": "0xb0a864757abdad574c39261dc6bf7e4576a20f2f",
        "to": "0x38d036aa36244ecb834aa10da95de81ea56b4b4e",
        "gas": "0x7521",
        "value": "0x0",
        "input": "0xa6f9dae10000000000000000000000001804c8ab1f12e6bbf3894d4083f33e07309d1f38",
        "nonce": "0x2c",
        "chainId": "0xaa36a7"
      },
      "additionalContracts": [],
      "isFixedGasLimit": false
    }
  ],
  "receipts": [
    {
      "status": "0x1",
      "cumulativeGasUsed": "0x11519ca",
      "logs": [],
      "logsBloom": "0x00000000000000000000000000000000000000000000000000000000000000000000000000000000000000000000000000000000000000000000000000000000000000000000000000000000000000000000000000000000000000000000000000000000000000000000000000000000000000000000000000000000000000000000000000000000000000000000000000000000000000000000000000000000000000000000000000000000000000000000000000000000000000000000000000000000000000000000000000000000000000000000000000000000000000000000000000000000000000000000000000000000000000000000000000000000",
      "type": "0x2",
      "transactionHash": "0xccf7d986499e9248413988bdca4e60b17fce93eaacf64d50a4d740045b68c482",
      "transactionIndex": "0x78",
      "blockHash": "0x1a2b1384a6fa8f3d4d11aaa3b609ab8bbf6f7c80546e904dbbdaaadeaffd123c",
      "blockNumber": "0x7c4ae1",
      "gasUsed": "0x5640",
      "effectiveGasPrice": "0x432ebe0",
      "from": "0xb0a864757abdad574c39261dc6bf7e4576a20f2f",
      "to": "0x38d036aa36244ecb834aa10da95de81ea56b4b4e",
      "contractAddress": null
    }
  ],
  "libraries": [],
  "pending": [],
  "returns": {},
  "timestamp": 1744999514,
  "chain": 11155111,
  "commit": "d083688"
}