{
  "transactions": [
    {
      "hash": null,
      "transactionType": "CALL",
      "contractName": null,
      "contractAddress": "0xfc5aa177f96b5b3fe48d09645d49bf39f045d447",
      "function": "changeOwner(address)",
      "arguments": [
        "0xB0A864757ABDad574c39261Dc6Bf7E4576a20F2F"
      ],
      "transaction": {
        "from": "0xb0a864757abdad574c39261dc6bf7e4576a20f2f",
        "to": "0xfc5aa177f96b5b3fe48d09645d49bf39f045d447",
        "gas": "0x7521",
        "value": "0x0",
        "input": "0xa6f9dae1000000000000000000000000b0a864757abdad574c39261dc6bf7e4576a20f2f",
        "nonce": "0x22",
        "chainId": "0xaa36a7"
      },
      "additionalContracts": [],
      "isFixedGasLimit": false
    }
  ],
  "receipts": [],
  "libraries": [],
  "pending": [],
  "returns": {},
  "timestamp": 1744995072,
  "chain": 11155111,
  "commit": "d083688"
}