{
  "transactions": [
    {
      "hash": "0xd2e6da530ee6527c7a80bc8bbcf7200771baa86118ab36afd1f2918baaaa1dbe",
      "transactionType": "CALL",
      "contractName": null,
      "contractAddress": "0x38d036aa36244ecb834aa10da95de81ea56b4b4e",
      "function": "changeOwner(address)",
      "arguments": [
        "0xB0A864757ABDad574c39261Dc6Bf7E4576a20F2F"
      ],
      "transaction": {
        "from": "0xb0a864757abdad574c39261dc6bf7e4576a20f2f",
        "to": "0x38d036aa36244ecb834aa10da95de81ea56b4b4e",
        "gas": "0x7521",
        "value": "0x0",
        "input": "0xa6f9dae1000000000000000000000000b0a864757abdad574c39261dc6bf7e4576a20f2f",
        "nonce": "0x31",
        "chainId": "0xaa36a7"
      },
      "additionalContracts": [],
      "isFixedGasLimit": false
    }
  ],
  "receipts": [
    {
      "status": "0x1",
      "cumulativeGasUsed": "0x9ce629",
      "logs": [],
      "logsBloom": "0x00000000000000000000000000000000000000000000000000000000000000000000000000000000000000000000000000000000000000000000000000000000000000000000000000000000000000000000000000000000000000000000000000000000000000000000000000000000000000000000000000000000000000000000000000000000000000000000000000000000000000000000000000000000000000000000000000000000000000000000000000000000000000000000000000000000000000000000000000000000000000000000000000000000000000000000000000000000000000000000000000000000000000000000000000000000",
      "type": "0x2",
      "transactionHash": "0xd2e6da530ee6527c7a80bc8bbcf7200771baa86118ab36afd1f2918baaaa1dbe",
      "transactionIndex": "0x76",
      "blockHash": "0x53b6a59a5b6aaa34457da810c7425fa8b1ef134013caa972a783a010ec77cddc",
      "blockNumber": "0x7c4b07",
      "gasUsed": "0x5640",
      "effectiveGasPrice": "0x146cb76",
      "from": "0xb0a864757abdad574c39261dc6bf7e4576a20f2f",
      "to": "0x38d036aa36244ecb834aa10da95de81ea56b4b4e",
      "contractAddress": null
    }
  ],
  "libraries": [],
  "pending": [],
  "returns": {},
  "timestamp": 1744999969,
  "chain": 11155111,
  "commit": "d083688"
}