{
  "transactions": [
    {
      "hash": "0x99f6d19812ad96aad35d85f890a47fb3990d719730adcadcddd213049fc15822",
      "transactionType": "CALL",
      "contractName": null,
      "contractAddress": "0xfc5aa177f96b5b3fe48d09645d49bf39f045d447",
      "function": "changeOwner(address)",
      "arguments": [
        "0xB0A864757ABDad574c39261Dc6Bf7E4576a20F2F"
      ],
      "transaction": {
        "from": "0xb0a864757abdad574c39261dc6bf7e4576a20f2f",
        "to": "0xfc5aa177f96b5b3fe48d09645d49bf39f045d447",
        "gas": "0x7521",
        "value": "0x0",
        "input": "0xa6f9dae1000000000000000000000000b0a864757abdad574c39261dc6bf7e4576a20f2f",
        "nonce": "0x22",
        "chainId": "0xaa36a7"
      },
      "additionalContracts": [],
      "isFixedGasLimit": false
    }
  ],
  "receipts": [
    {
      "status": "0x1",
      "cumulativeGasUsed": "0x40ea61",
      "logs": [],
      "logsBloom": "0x00000000000000000000000000000000000000000000000000000000000000000000000000000000000000000000000000000000000000000000000000000000000000000000000000000000000000000000000000000000000000000000000000000000000000000000000000000000000000000000000000000000000000000000000000000000000000000000000000000000000000000000000000000000000000000000000000000000000000000000000000000000000000000000000000000000000000000000000000000000000000000000000000000000000000000000000000000000000000000000000000000000000000000000000000000000",
      "type": "0x2",
      "transactionHash": "0x99f6d19812ad96aad35d85f890a47fb3990d719730adcadcddd213049fc15822",
      "transactionIndex": "0x34",
      "blockHash": "0xf60949fccb912fa14a68c48d6d18b0d5bba9eb6ab78cff1afae64cea1c06d713",
      "blockNumber": "0x7c49e6",
      "gasUsed": "0x5640",
      "effectiveGasPrice": "0x4d72b5e2a6",
      "from": "0xb0a864757abdad574c39261dc6bf7e4576a20f2f",
      "to": "0xfc5aa177f96b5b3fe48d09645d49bf39f045d447",
      "contractAddress": null
    }
  ],
  "libraries": [],
  "pending": [],
  "returns": {},
  "timestamp": 1744996501,
  "chain": 11155111,
  "commit": "d083688"
}