{
  "transactions": [
    {
      "hash": "0xbab7f0b56de7c9b74715ca830f1e436de0b4bf29a77d2380de102359996a25b8",
      "transactionType": "CALL",
      "contractName": null,
      "contractAddress": "0xfc5aa177f96b5b3fe48d09645d49bf39f045d447",
      "function": "changeOwner(address)",
      "arguments": [
        "0xB0A864757ABDad574c39261Dc6Bf7E4576a20F2F"
      ],
      "transaction": {
        "from": "0xb0a864757abdad574c39261dc6bf7e4576a20f2f",
        "to": "0xfc5aa177f96b5b3fe48d09645d49bf39f045d447",
        "gas": "0x7521",
        "value": "0x0",
        "input": "0xa6f9dae1000000000000000000000000b0a864757abdad574c39261dc6bf7e4576a20f2f",
        "nonce": "0x23",
        "chainId": "0xaa36a7"
      },
      "additionalContracts": [],
      "isFixedGasLimit": false
    }
  ],
  "receipts": [
    {
      "status": "0x1",
      "cumulativeGasUsed": "0xc09c52",
      "logs": [],
      "logsBloom": "0x00000000000000000000000000000000000000000000000000000000000000000000000000000000000000000000000000000000000000000000000000000000000000000000000000000000000000000000000000000000000000000000000000000000000000000000000000000000000000000000000000000000000000000000000000000000000000000000000000000000000000000000000000000000000000000000000000000000000000000000000000000000000000000000000000000000000000000000000000000000000000000000000000000000000000000000000000000000000000000000000000000000000000000000000000000000",
      "type": "0x2",
      "transactionHash": "0xbab7f0b56de7c9b74715ca830f1e436de0b4bf29a77d2380de102359996a25b8",
      "transactionIndex": "0x4a",
      "blockHash": "0xdfcade76422eaedcc473a2517dbffd0ae817f006fb44b5528ec539a309665fc5",
      "blockNumber": "0x7c4a07",
      "gasUsed": "0x5640",
      "effectiveGasPrice": "0x17ec435f09",
      "from": "0xb0a864757abdad574c39261dc6bf7e4576a20f2f",
      "to": "0xfc5aa177f96b5b3fe48d09645d49bf39f045d447",
      "contractAddress": null
    }
  ],
  "libraries": [],
  "pending": [],
  "returns": {},
  "timestamp": 1744996896,
  "chain": 11155111,
  "commit": "d083688"
}