{
  "transactions": [
    {
      "hash": "0x97b9f3ddeb751bd787e984a833faa7e2430f1ebf4d7862bec1bde149f07c2abf",
      "transactionType": "CALL",
      "contractName": null,
      "contractAddress": "0x38d036aa36244ecb834aa10da95de81ea56b4b4e",
      "function": "changeOwner(address)",
      "arguments": [
        "0x1804c8AB1F12E6bbf3894d4083f33e07309d1f38"
      ],
      "transaction": {
        "from": "0xb0a864757abdad574c39261dc6bf7e4576a20f2f",
        "to": "0x38d036aa36244ecb834aa10da95de81ea56b4b4e",
        "gas": "0x7521",
        "value": "0x0",
        "input": "0xa6f9dae10000000000000000000000001804c8ab1f12e6bbf3894d4083f33e07309d1f38",
        "nonce": "0x28",
        "chainId": "0xaa36a7"
      },
      "additionalContracts": [],
      "isFixedGasLimit": false
    }
  ],
  "receipts": [
    {
      "status": "0x1",
      "cumulativeGasUsed": "0x3623d0",
      "logs": [],
      "logsBloom": "0x00000000000000000000000000000000000000000000000000000000000000000000000000000000000000000000000000000000000000000000000000000000000000000000000000000000000000000000000000000000000000000000000000000000000000000000000000000000000000000000000000000000000000000000000000000000000000000000000000000000000000000000000000000000000000000000000000000000000000000000000000000000000000000000000000000000000000000000000000000000000000000000000000000000000000000000000000000000000000000000000000000000000000000000000000000000",
      "type": "0x2",
      "transactionHash": "0x97b9f3ddeb751bd787e984a833faa7e2430f1ebf4d7862bec1bde149f07c2abf",
      "transactionIndex": "0x30",
      "blockHash": "0x15388c81aad2ab0ed3a275e350e66a566346499643abc66c736b21ae88a412a4",
      "blockNumber": "0x7c4a4a",
      "gasUsed": "0x5640",
      "effectiveGasPrice": "0x7bb1c04e6",
      "from": "0xb0a864757abdad574c39261dc6bf7e4576a20f2f",
      "to": "0x38d036aa36244ecb834aa10da95de81ea56b4b4e",
      "contractAddress": null
    }
  ],
  "libraries": [],
  "pending": [],
  "returns": {},
  "timestamp": 1744997700,
  "chain": 11155111,
  "commit": "d083688"
}