{
  "transactions": [
    {
      "hash": "0x5b2772b9851bb2aac43026a749a36ba461f941dc40000ca2defed2f80f481086",
      "transactionType": "CREATE",
      "contractName": "Vault",
      "contractAddress": "0x417d4fd3278bd7340f0ec367ff8859641e5c7c62",
      "function": null,
      "arguments": [
        "0xa1dfce33d7204812f8d9dafa43869bf0d9141cf71a1ca12983bd7b4ceaef5f92"
      ],
      "transaction": {
        "from": "0xb0a864757abdad574c39261dc6bf7e4576a20f2f",
        "gas": "0x39710",
        "value": "0x0",
        "input": "0x6080604052348015600e575f5ffd5b5060405161022b38038061022b8339818101604052810190602e91906085565b60015f5f6101000a81548160ff021916908315150217905550806001819055505060ab565b5f5ffd5b5f819050919050565b6067816057565b81146070575f5ffd5b50565b5f81519050607f816060565b92915050565b5f6020828403121560975760966053565b5b5f60a2848285016073565b91505092915050565b610173806100b85f395ff3fe608060405234801561000f575f5ffd5b5060043610610034575f3560e01c8063cf30901214610038578063ec9b5b3a14610056575b5f5ffd5b610040610072565b60405161004d91906100c2565b60405180910390f35b610070600480360381019061006b9190610112565b610083565b005b5f5f9054906101000a900460ff1681565b80600154036100a5575f5f5f6101000a81548160ff0219169083151502179055505b50565b5f8115159050919050565b6100bc816100a8565b82525050565b5f6020820190506100d55f8301846100b3565b92915050565b5f5ffd5b5f819050919050565b6100f1816100df565b81146100fb575f5ffd5b50565b5f8135905061010c816100e8565b92915050565b5f60208284031215610127576101266100db565b5b5f610134848285016100fe565b9150509291505056fea2646970667358221220b63fba05a39421854c95b780a63d6876f1b9218b0aeaa3dfa658f0336fe86edf64736f6c634300081c0033a1dfce33d7204812f8d9dafa43869bf0d9141cf71a1ca12983bd7b4ceaef5f92",
        "nonce": "0x63",
        "chainId": "0xaa36a7"
      },
      "additionalContracts": [],
      "isFixedGasLimit": false
    },
    {
      "hash": "0x424e862ac75196a60c4a15f6fbb7bd148517da164857206c3c0e5a1d05024736",
      "transactionType": "CALL",
      "contractName": "Vault",
      "contractAddress": "0x417d4fd3278bd7340f0ec367ff8859641e5c7c62",
      "function": "unlock(bytes32)",
      "arguments": [
        "0xa1dfce33d7204812f8d9dafa43869bf0d9141cf71a1ca12983bd7b4ceaef5f92"
      ],
      "transaction": {
        "from": "0xb0a864757abdad574c39261dc6bf7e4576a20f2f",
        "to": "0x417d4fd3278bd7340f0ec367ff8859641e5c7c62",
        "gas": "0x8373",
        "value": "0x0",
        "input": "0xec9b5b3aa1dfce33d7204812f8d9dafa43869bf0d9141cf71a1ca12983bd7b4ceaef5f92",
        "nonce": "0x64",
        "chainId": "0xaa36a7"
      },
      "additionalContracts": [],
      "isFixedGasLimit": false
    }
  ],
  "receipts": [
    {
      "status": "0x1",
      "cumulativeGasUsed": "0x605105",
      "logs": [],
      "logsBloom": "0x00000000000000000000000000000000000000000000000000000000000000000000000000000000000000000000000000000000000000000000000000000000000000000000000000000000000000000000000000000000000000000000000000000000000000000000000000000000000000000000000000000000000000000000000000000000000000000000000000000000000000000000000000000000000000000000000000000000000000000000000000000000000000000000000000000000000000000000000000000000000000000000000000000000000000000000000000000000000000000000000000000000000000000000000000000000",
      "type": "0x2",
      "transactionHash": "0x5b2772b9851bb2aac43026a749a36ba461f941dc40000ca2defed2f80f481086",
      "transactionIndex": "0x40",
      "blockHash": "0x85a9aa62ad042631d98b6d37bf56f265895a7744ece1b9c9e273692aa97461d2",
      "blockNumber": "0x7d385f",
      "gasUsed": "0x2c2f9",
      "effectiveGasPrice": "0x163de1a20",
      "from": "0xb0a864757abdad574c39261dc6bf7e4576a20f2f",
      "to": null,
      "contractAddress": "0x417d4fd3278bd7340f0ec367ff8859641e5c7c62"
    },
    {
      "status": "0x1",
      "cumulativeGasUsed": "0x60b031",
      "logs": [],
      "logsBloom": "0x00000000000000000000000000000000000000000000000000000000000000000000000000000000000000000000000000000000000000000000000000000000000000000000000000000000000000000000000000000000000000000000000000000000000000000000000000000000000000000000000000000000000000000000000000000000000000000000000000000000000000000000000000000000000000000000000000000000000000000000000000000000000000000000000000000000000000000000000000000000000000000000000000000000000000000000000000000000000000000000000000000000000000000000000000000000",
      "type": "0x2",
      "transactionHash": "0x424e862ac75196a60c4a15f6fbb7bd148517da164857206c3c0e5a1d05024736",
      "transactionIndex": "0x41",
      "blockHash": "0x85a9aa62ad042631d98b6d37bf56f265895a7744ece1b9c9e273692aa97461d2",
      "blockNumber": "0x7d385f",
      "gasUsed": "0x5f2c",
      "effectiveGasPrice": "0x163de1a20",
      "from": "0xb0a864757abdad574c39261dc6bf7e4576a20f2f",
      "to": "0x417d4fd3278bd7340f0ec367ff8859641e5c7c62",
      "contractAddress": null
    }
  ],
  "libraries": [],
  "pending": [],
  "returns": {},
  "timestamp": 1745761032,
  "chain": 11155111,
  "commit": "141765f"
}