{
  "transactions": [
    {
      "hash": "0xba4413600c17c93c09203f881b5f28dc457455c7b582e1557641b078f48981ad",
      "transactionType": "CALL",
      "contractName": null,
      "contractAddress": "0xa4516ef85aa1c5d81988c82ccde5192f0c4ead25",
      "function": "transfer(address,uint256)",
      "arguments": [
        "0x9f7cF1d1F558E57ef88a59ac3D47214eF25B6A06",
        "20"
      ],
      "transaction": {
        "from": "0xb0a864757abdad574c39261dc6bf7e4576a20f2f",
        "to": "0xa4516ef85aa1c5d81988c82ccde5192f0c4ead25",
        "gas": "0xb580",
        "value": "0x0",
        "input": "0xa9059cbb0000000000000000000000009f7cf1d1f558e57ef88a59ac3d47214ef25b6a060000000000000000000000000000000000000000000000000000000000000014",
        "nonce": "0x5c",
        "chainId": "0xaa36a7"
      },
      "additionalContracts": [],
      "isFixedGasLimit": false
    },
    {
      "hash": "0x3fccdcc93828aa4b0fe2776e1f2c8b40dbc0ddd184081e7e38e2d54da51c7ebc",
      "transactionType": "CALL",
      "contractName": null,
      "contractAddress": "0xa4516ef85aa1c5d81988c82ccde5192f0c4ead25",
      "function": "transfer(address,uint256)",
      "arguments": [
        "0x1804c8AB1F12E6bbf3894d4083f33e07309d1f38",
        "50"
      ],
      "transaction": {
        "from": "0xb0a864757abdad574c39261dc6bf7e4576a20f2f",
        "to": "0xa4516ef85aa1c5d81988c82ccde5192f0c4ead25",
        "gas": "0xb580",
        "value": "0x0",
        "input": "0xa9059cbb0000000000000000000000001804c8ab1f12e6bbf3894d4083f33e07309d1f380000000000000000000000000000000000000000000000000000000000000032",
        "nonce": "0x5d",
        "chainId": "0xaa36a7"
      },
      "additionalContracts": [],
      "isFixedGasLimit": false
    }
  ],
  "receipts": [
    {
      "status": "0x1",
      "cumulativeGasUsed": "0xc62a82",
      "logs": [],
      "logsBloom": "0x00000000000000000000000000000000000000000000000000000000000000000000000000000000000000000000000000000000000000000000000000000000000000000000000000000000000000000000000000000000000000000000000000000000000000000000000000000000000000000000000000000000000000000000000000000000000000000000000000000000000000000000000000000000000000000000000000000000000000000000000000000000000000000000000000000000000000000000000000000000000000000000000000000000000000000000000000000000000000000000000000000000000000000000000000000000",
      "type": "0x2",
      "transactionHash": "0xba4413600c17c93c09203f881b5f28dc457455c7b582e1557641b078f48981ad",
      "transactionIndex": "0x88",
      "blockHash": "0xe5172b515503b0091be0f447f490c2ed47764639a10a794fe99089d98292347c",
      "blockNumber": "0x7cecc5",
      "gasUsed": "0x7d28",
      "effectiveGasPrice": "0x6cd02ba6f",
      "from": "0xb0a864757abdad574c39261dc6bf7e4576a20f2f",
      "to": "0xa4516ef85aa1c5d81988c82ccde5192f0c4ead25",
      "contractAddress": null
    },
    {
      "status": "0x1",
      "cumulativeGasUsed": "0xc6a7aa",
      "logs": [],
      "logsBloom": "0x00000000000000000000000000000000000000000000000000000000000000000000000000000000000000000000000000000000000000000000000000000000000000000000000000000000000000000000000000000000000000000000000000000000000000000000000000000000000000000000000000000000000000000000000000000000000000000000000000000000000000000000000000000000000000000000000000000000000000000000000000000000000000000000000000000000000000000000000000000000000000000000000000000000000000000000000000000000000000000000000000000000000000000000000000000000",
      "type": "0x2",
      "transactionHash": "0x3fccdcc93828aa4b0fe2776e1f2c8b40dbc0ddd184081e7e38e2d54da51c7ebc",
      "transactionIndex": "0x89",
      "blockHash": "0xe5172b515503b0091be0f447f490c2ed47764639a10a794fe99089d98292347c",
      "blockNumber": "0x7cecc5",
      "gasUsed": "0x7d28",
      "effectiveGasPrice": "0x6cd02ba6f",
      "from": "0xb0a864757abdad574c39261dc6bf7e4576a20f2f",
      "to": "0xa4516ef85aa1c5d81988c82ccde5192f0c4ead25",
      "contractAddress": null
    }
  ],
  "libraries": [],
  "pending": [],
  "returns": {},
  "timestamp": 1745512585,
  "chain": 11155111,
  "commit": "2f72d8a"
}